{
  "contractName": "AccessControl",
  "abi": [
    {
      "anonymous": false,
      "inputs": [
        {
          "indexed": true,
          "internalType": "address",
          "name": "patientAddress",
          "type": "address"
        },
        {
          "indexed": true,
          "internalType": "address",
          "name": "providerAddress",
          "type": "address"
        },
        {
          "indexed": false,
          "internalType": "string",
          "name": "recordHash",
          "type": "string"
        },
        {
          "indexed": false,
          "internalType": "uint256",
          "name": "timestamp",
          "type": "uint256"
        }
      ],
      "name": "AccessGranted",
      "type": "event"
    },
    {
      "anonymous": false,
      "inputs": [
        {
          "indexed": true,
          "internalType": "address",
          "name": "patientAddress",
          "type": "address"
        },
        {
          "indexed": true,
          "internalType": "address",
          "name": "providerAddress",
          "type": "address"
        },
        {
          "indexed": false,
          "internalType": "string",
          "name": "recordHash",
          "type": "string"
        },
        {
          "indexed": false,
          "internalType": "uint256",
          "name": "timestamp",
          "type": "uint256"
        }
      ],
      "name": "AccessRevoked",
      "type": "event"
    },
    {
      "anonymous": false,
      "inputs": [
        {
          "indexed": true,
          "internalType": "address",
          "name": "patientAddress",
          "type": "address"
        },
        {
          "indexed": false,
          "internalType": "string",
          "name": "name",
          "type": "string"
        }
      ],
      "name": "PatientRegistered",
      "type": "event"
    },
    {
      "anonymous": false,
      "inputs": [
        {
          "indexed": true,
          "internalType": "address",
          "name": "providerAddress",
          "type": "address"
        },
        {
          "indexed": false,
          "internalType": "string",
          "name": "name",
          "type": "string"
        },
        {
          "indexed": false,
          "internalType": "string",
          "name": "hospital",
          "type": "string"
        }
      ],
      "name": "ProviderRegistered",
      "type": "event"
    },
    {
      "anonymous": false,
      "inputs": [
        {
          "indexed": true,
          "internalType": "address",
          "name": "patientAddress",
          "type": "address"
        },
        {
          "indexed": false,
          "internalType": "string",
          "name": "recordHash",
          "type": "string"
        },
        {
          "indexed": false,
          "internalType": "uint256",
          "name": "timestamp",
          "type": "uint256"
        }
      ],
      "name": "RecordUploaded",
      "type": "event"
    },
    {
      "inputs": [
        {
          "internalType": "address",
          "name": "",
          "type": "address"
        }
      ],
      "name": "patients",
      "outputs": [
        {
          "internalType": "address",
          "name": "owner",
          "type": "address"
        },
        {
          "internalType": "string",
          "name": "name",
          "type": "string"
        },
        {
          "internalType": "bool",
          "name": "isRegistered",
          "type": "bool"
        }
      ],
      "stateMutability": "view",
      "type": "function",
      "constant": true
    },
    {
      "inputs": [
        {
          "internalType": "address",
          "name": "",
          "type": "address"
        }
      ],
      "name": "providers",
      "outputs": [
        {
          "internalType": "address",
          "name": "owner",
          "type": "address"
        },
        {
          "internalType": "string",
          "name": "name",
          "type": "string"
        },
        {
          "internalType": "string",
          "name": "hospital",
          "type": "string"
        },
        {
          "internalType": "bool",
          "name": "isRegistered",
          "type": "bool"
        }
      ],
      "stateMutability": "view",
      "type": "function",
      "constant": true
    },
    {
      "inputs": [
        {
          "internalType": "string",
          "name": "_name",
          "type": "string"
        }
      ],
      "name": "registerPatient",
      "outputs": [],
      "stateMutability": "nonpayable",
      "type": "function"
    },
    {
      "inputs": [
        {
          "internalType": "string",
          "name": "_name",
          "type": "string"
        },
        {
          "internalType": "string",
          "name": "_hospital",
          "type": "string"
        }
      ],
      "name": "registerProvider",
      "outputs": [],
      "stateMutability": "nonpayable",
      "type": "function"
    },
    {
      "inputs": [
        {
          "internalType": "string",
          "name": "_recordHash",
          "type": "string"
        }
      ],
      "name": "uploadRecord",
      "outputs": [],
      "stateMutability": "nonpayable",
      "type": "function"
    },
    {
      "inputs": [
        {
          "internalType": "address",
          "name": "_providerAddress",
          "type": "address"
        },
        {
          "internalType": "string",
          "name": "_recordHash",
          "type": "string"
        }
      ],
      "name": "grantAccess",
      "outputs": [],
      "stateMutability": "nonpayable",
      "type": "function"
    },
    {
      "inputs": [
        {
          "internalType": "address",
          "name": "_providerAddress",
          "type": "address"
        },
        {
          "internalType": "string",
          "name": "_recordHash",
          "type": "string"
        }
      ],
      "name": "revokeAccess",
      "outputs": [],
      "stateMutability": "nonpayable",
      "type": "function"
    },
    {
      "inputs": [
        {
          "internalType": "address",
          "name": "_patientAddress",
          "type": "address"
        },
        {
          "internalType": "address",
          "name": "_providerAddress",
          "type": "address"
        },
        {
          "internalType": "string",
          "name": "_recordHash",
          "type": "string"
        }
      ],
      "name": "checkAccess",
      "outputs": [
        {
          "internalType": "bool",
          "name": "",
          "type": "bool"
        }
      ],
      "stateMutability": "view",
      "type": "function",
      "constant": true
    },
    {
      "inputs": [],
      "name": "getMyRecords",
      "outputs": [
        {
          "internalType": "string[]",
          "name": "",
          "type": "string[]"
        }
      ],
      "stateMutability": "view",
      "type": "function",
      "constant": true
    },
    {
      "inputs": [
        {
          "internalType": "address",
          "name": "_patient",
          "type": "address"
        }
      ],
      "name": "getPatientRecords",
      "outputs": [
        {
          "internalType": "string[]",
          "name": "",
          "type": "string[]"
        }
      ],
      "stateMutability": "view",
      "type": "function",
      "constant": true
    }
  ],
  "bytecode": "0x608060405234801561001057600080fd5b506111ee806100206000396000f3fe608060405234801561001057600080fd5b506004361061009e5760003560e01c80637fb869bb116100665780637fb869bb14610139578063869c9eaf1461014c578063bfe9ee9b1461015f578063e50fe48e14610182578063e76637ce1461019557600080fd5b80630787bc27146100a35780630869cfbc146100cf57806318bd4847146100f15780636a44cac91461011157806374ca897114610126575b600080fd5b6100b66100b1366004610c74565b61019d565b6040516100c69493929190610ce6565b60405180910390f35b6100e26100dd366004610c74565b6102e4565b6040516100c693929190610d30565b6101046100ff366004610c74565b61039c565b6040516100c69190610d66565b61012461011f366004610e6b565b61048c565b005b610124610134366004610eb9565b6105cc565b610124610147366004610f13565b610701565b61012461015a366004610f13565b6107a4565b61017261016d366004610f50565b6108fb565b60405190151581526020016100c6565b610124610190366004610e6b565b61094e565b610104610a7e565b6001602081905260009182526040909120805491810180546001600160a01b03909316926101ca90610fae565b80601f01602080910402602001604051908101604052809291908181526020018280546101f690610fae565b80156102435780601f1061021857610100808354040283529160200191610243565b820191906000526020600020905b81548152906001019060200180831161022657829003601f168201915b50505050509080600201805461025890610fae565b80601f016020809104026020016040519081016040528092919081815260200182805461028490610fae565b80156102d15780601f106102a6576101008083540402835291602001916102d1565b820191906000526020600020905b8154815290600101906020018083116102b457829003601f168201915b5050506003909301549192505060ff1684565b600060208190529081526040902080546001820180546001600160a01b03909216929161031090610fae565b80601f016020809104026020016040519081016040528092919081815260200182805461033c90610fae565b80156103895780601f1061035e57610100808354040283529160200191610389565b820191906000526020600020905b81548152906001019060200180831161036c57829003601f168201915b5050506002909301549192505060ff1683565b6001600160a01b038116600090815260208181526040808320600301805482518185028101850190935280835260609492939192909184015b828210156104815783829060005260206000200180546103f490610fae565b80601f016020809104026020016040519081016040528092919081815260200182805461042090610fae565b801561046d5780601f106104425761010080835404028352916020019161046d565b820191906000526020600020905b81548152906001019060200180831161045057829003601f168201915b5050505050815260200190600101906103d5565b505050509050919050565b3360009081526020819052604090206002015460ff166104c75760405162461bcd60e51b81526004016104be90610fe8565b60405180910390fd5b6001600160a01b03821660009081526001602052604090206003015460ff166105325760405162461bcd60e51b815260206004820152601a60248201527f50726f7669646572206973206e6f74207265676973746572656400000000000060448201526064016104be565b3360009081526002602090815260408083206001600160a01b0386168452909152808220905161056390849061102a565b908152604051908190036020018120805492151560ff19909316929092179091556001600160a01b0383169033907f1852eeec29c8b9e06624d3e3008123c26ddd6173947b6bea9054402ea8ca57ad906105c09085904290611046565b60405180910390a35050565b3360009081526001602052604090206003015460ff161561062f5760405162461bcd60e51b815260206004820152601b60248201527f50726f766964657220616c72656164792072656769737465726564000000000060448201526064016104be565b6040805160808101825233808252602080830186815283850186905260016060850181905260009384529182905293909120825181546001600160a01b0319166001600160a01b0390911617815592519192919082019061069090826110b7565b50604082015160028201906106a590826110b7565b50606091909101516003909101805460ff191691151591909117905560405133907f6b1aa1e318762b7b04f60cd1d318222049b2c70c1c7daad0af5276d5f3b2525a906106f59085908590611177565b60405180910390a25050565b3360009081526020819052604090206002015460ff166107335760405162461bcd60e51b81526004016104be90610fe8565b336000908152602081815260408220600301805460018101825590835291200161075d82826110b7565b50336001600160a01b03167f3564e739cc07f826a0b37ed3f9eb68fbb4c694f82ee6ba6a8349de13b6e56d1a8242604051610799929190611046565b60405180910390a250565b3360009081526020819052604090206002015460ff16156108075760405162461bcd60e51b815260206004820152601a60248201527f50617469656e7420616c7265616479207265676973746572656400000000000060448201526064016104be565b6040805160808101825233815260208082018490526001828401528251600080825291810190935290916060830191610850565b606081526020019060019003908161083b5790505b50905233600090815260208181526040909120825181546001600160a01b0319166001600160a01b0390911617815590820151600182019061089290826110b7565b50604082015160028201805460ff1916911515919091179055606082015180516108c6916003840191602090910190610b93565b50506040513391507fc85b128388b9c331a2a5485dce4cd0f3db9f7c279d327ce95d6d39d6c94644c7906107999084906111a5565b6001600160a01b0380841660009081526002602090815260408083209386168352929052818120915190919061093290849061102a565b9081526040519081900360200190205460ff1690509392505050565b3360009081526020819052604090206002015460ff166109805760405162461bcd60e51b81526004016104be90610fe8565b6001600160a01b03821660009081526001602052604090206003015460ff166109eb5760405162461bcd60e51b815260206004820152601a60248201527f50726f7669646572206973206e6f74207265676973746572656400000000000060448201526064016104be565b3360009081526002602090815260408083206001600160a01b038616845290915290819020905160019190610a2190849061102a565b908152604051908190036020018120805492151560ff19909316929092179091556001600160a01b0383169033907f3cb7f6eca2e89478480f2e19de24bf888294c28de0d596963a54d49a51e2252d906105c09085904290611046565b3360009081526020819052604090206002015460609060ff16610ab35760405162461bcd60e51b81526004016104be90610fe8565b3360009081526020818152604080832060030180548251818502810185019093528083529193909284015b82821015610b8a578382906000526020600020018054610afd90610fae565b80601f0160208091040260200160405190810160405280929190818152602001828054610b2990610fae565b8015610b765780601f10610b4b57610100808354040283529160200191610b76565b820191906000526020600020905b815481529060010190602001808311610b5957829003601f168201915b505050505081526020019060010190610ade565b50505050905090565b828054828255906000526020600020908101928215610bd9579160200282015b82811115610bd95782518290610bc990826110b7565b5091602001919060010190610bb3565b50610be5929150610be9565b5090565b80821115610be5576000610bfd8282610c06565b50600101610be9565b508054610c1290610fae565b6000825580601f10610c22575050565b601f016020900490600052602060002090810190610c409190610c43565b50565b5b80821115610be55760008155600101610c44565b80356001600160a01b0381168114610c6f57600080fd5b919050565b600060208284031215610c8657600080fd5b610c8f82610c58565b9392505050565b60005b83811015610cb1578181015183820152602001610c99565b50506000910152565b60008151808452610cd2816020860160208601610c96565b601f01601f19169290920160200192915050565b6001600160a01b0385168152608060208201819052600090610d0a90830186610cba565b8281036040840152610d1c8186610cba565b915050821515606083015295945050505050565b6001600160a01b0384168152606060208201819052600090610d5490830185610cba565b90508215156040830152949350505050565b6000602080830181845280855180835260408601915060408160051b870101925083870160005b82811015610dbb57603f19888603018452610da9858351610cba565b94509285019290850190600101610d8d565b5092979650505050505050565b634e487b7160e01b600052604160045260246000fd5b600082601f830112610def57600080fd5b813567ffffffffffffffff80821115610e0a57610e0a610dc8565b604051601f8301601f19908116603f01168101908282118183101715610e3257610e32610dc8565b81604052838152866020858801011115610e4b57600080fd5b836020870160208301376000602085830101528094505050505092915050565b60008060408385031215610e7e57600080fd5b610e8783610c58565b9150602083013567ffffffffffffffff811115610ea357600080fd5b610eaf85828601610dde565b9150509250929050565b60008060408385031215610ecc57600080fd5b823567ffffffffffffffff80821115610ee457600080fd5b610ef086838701610dde565b93506020850135915080821115610f0657600080fd5b50610eaf85828601610dde565b600060208284031215610f2557600080fd5b813567ffffffffffffffff811115610f3c57600080fd5b610f4884828501610dde565b949350505050565b600080600060608486031215610f6557600080fd5b610f6e84610c58565b9250610f7c60208501610c58565b9150604084013567ffffffffffffffff811115610f9857600080fd5b610fa486828701610dde565b9150509250925092565b600181811c90821680610fc257607f821691505b602082108103610fe257634e487b7160e01b600052602260045260246000fd5b50919050565b60208082526022908201527f43616c6c6572206973206e6f74206120726567697374657265642070617469656040820152611b9d60f21b606082015260800190565b6000825161103c818460208701610c96565b9190910192915050565b6040815260006110596040830185610cba565b90508260208301529392505050565b601f8211156110b257600081815260208120601f850160051c8101602086101561108f5750805b601f850160051c820191505b818110156110ae5782815560010161109b565b5050505b505050565b815167ffffffffffffffff8111156110d1576110d1610dc8565b6110e5816110df8454610fae565b84611068565b602080601f83116001811461111a57600084156111025750858301515b600019600386901b1c1916600185901b1785556110ae565b600085815260208120601f198616915b828110156111495788860151825594840194600190910190840161112a565b50858210156111675787850151600019600388901b60f8161c191681555b5050505050600190811b01905550565b60408152600061118a6040830185610cba565b828103602084015261119c8185610cba565b95945050505050565b602081526000610c8f6020830184610cba56fea2646970667358221220f9957334ee9ad3f3ddca0315717a146cd60771b91a2ac77145880c435eb5b56764736f6c63430008140033",
  "immutableReferences": {},
  "source": "pragma solidity 0.8.20;\r\n\r\n/**\r\n * @title AccessControl\r\n * @dev Manages patient-centric access control for Electronic Health Records (EHR's).\r\n * Patients can register, upload record hashes (from IPFS), and grant/revoke\r\n * access to those records for healthcare providers.\r\n * All access attempts are logged as events for an immutable audit trail.\r\n */\r\n\r\ncontract AccessControl {\r\n    // --- State Variables ---\r\n\r\n    // Struct to store patient metadata.\r\n    // \"owner\" is the patient's unique wallet address.\r\n    struct Patient{\r\n        address owner;\r\n        string name;\r\n        bool isRegistered;\r\n        string[] recordHashes; // Array of IPFS hashes\r\n    }\r\n\r\n    // Struct to store provider metadata.\r\n    struct Provider{\r\n        address owner;\r\n        string name;\r\n        string hospital;\r\n        bool isRegistered;\r\n    }\r\n\r\n    // Stores patient data, mapping wallet address to Patient struct\r\n    mapping(address => Patient) public patients;\r\n\r\n    // Stores provider data, mapping wallet address to Provider struct\r\n    mapping(address => Provider) public providers;\r\n\r\n    /**\r\n     * @dev The core of the system.\r\n     * This nested mapping checks permissions.\r\n     * Format: mapping(patientAddress => mapping(providerAddress => mapping(recordHash => hasAccess)))\r\n     */\r\n    mapping(address => mapping(address => mapping(string => bool))) private permissions;\r\n\r\n    // --- Events (for Audit Trail) ---\r\n\r\n    event PatientRegistered(address indexed patientAddress, string name);\r\n    event ProviderRegistered(address indexed providerAddress, string name, string hospital);\r\n    event RecordUploaded(address indexed patientAddress, string recordHash, uint256 timestamp);\r\n    event AccessGranted(address indexed patientAddress, address indexed providerAddress, string recordHash, uint256 timestamp);\r\n    event AccessRevoked(address indexed patientAddress, address indexed providerAddress, string recordHash, uint256 timestamp);\r\n\r\n    // --- Modifiers ---\r\n\r\n    // Modifier to check if the caller is a registered patient\r\n    modifier onlyPatient() {\r\n        require(patients[msg.sender].isRegistered, \"Caller is not a registered patient\");\r\n        _;\r\n    }\r\n\r\n    // Modifier to check if the caller is a registered provider\r\n    modifier onlyProvider() {\r\n        require(providers[msg.sender].isRegistered, \"Caller is not a registered provider\");\r\n        _;\r\n    }\r\n\r\n    // --- Functions ---\r\n\r\n    /**\r\n     * @dev Registers a new patient.\r\n     * The caller's wallet address (msg.sender) becomes their unique ID.\r\n     */\r\n    function registerPatient(string memory _name) public{\r\n        require(!patients[msg.sender].isRegistered, \"Patient already registered\");\r\n        patients[msg.sender] = Patient({\r\n            owner: msg.sender,\r\n            name: _name,\r\n            isRegistered: true,\r\n            recordHashes: new string[](0)\r\n        });\r\n        emit PatientRegistered(msg.sender, _name);\r\n    }\r\n\r\n    /**\r\n     * @dev Registers a new provider (hospital, doctor, pharmacy).\r\n     */\r\n    function registerProvider(string memory _name, string memory _hospital) public {\r\n        require(!providers[msg.sender].isRegistered, \"Provider already registered\");\r\n        providers[msg.sender] = Provider({\r\n            owner: msg.sender,\r\n            name: _name,\r\n            hospital: _hospital,\r\n            isRegistered: true\r\n        });\r\n        emit ProviderRegistered(msg.sender, _name, _hospital);\r\n    }\r\n\r\n    /**\r\n     * @dev Adds a new record's IPFS hash to the patient's profile.\r\n     * This can only be called by a registered patient.\r\n     * (In real system, you might let a provider upload *for* a patient,\r\n     * but this \"patient-upload\" model is simpler to start with).\r\n     */\r\n    function uploadRecord(string memory _recordHash) public onlyPatient{\r\n        patients[msg.sender].recordHashes.push(_recordHash);\r\n        emit RecordUploaded(msg.sender, _recordHash, block.timestamp);\r\n    }\r\n\r\n    /**\r\n     * @dev Grants a provider access to a specific record.\r\n     * This is the core patient-consent function.\r\n     * Only the patient can call this.\r\n     */\r\n    function grantAccess(address _providerAddress, string memory _recordHash) public onlyPatient{\r\n        require(providers[_providerAddress].isRegistered, \"Provider is not registered\");\r\n        permissions[msg.sender][_providerAddress][_recordHash] = true;\r\n        emit AccessGranted(msg.sender, _providerAddress, _recordHash, block.timestamp);\r\n    }\r\n\r\n    /**\r\n     * @dev Revokes a provider's access to a specific record.\r\n     * Only the patient can call this.\r\n     */\r\n    function revokeAccess(address _providerAddress, string memory _recordHash) public onlyPatient{\r\n        require(providers[_providerAddress].isRegistered, \"Provider is not registered\");\r\n        permissions[msg.sender][_providerAddress][_recordHash] = false;\r\n        emit AccessRevoked(msg.sender, _providerAddress, _recordHash, block.timestamp);\r\n    }\r\n\r\n    /**\r\n     * @dev Allows anyone (e.g., the backend server) to check if provider\r\n     * has access to a patient's record. This is a public \"view\" function,\r\n     * so it doesn't cost any gas to call.\r\n     */\r\n    function checkAccess(\r\n        address _patientAddress,\r\n        address _providerAddress,\r\n        string memory _recordHash\r\n    ) public view returns (bool) {\r\n        return permissions[_patientAddress][_providerAddress][_recordHash];\r\n    }\r\n\r\n    /**\r\n     * @dev Fetches all record hashes for the calling patient.\r\n     */\r\n    function getMyRecords() public view onlyPatient returns (string[] memory){\r\n        return patients[msg.sender].recordHashes;\r\n    }\r\n\r\n    /**\r\n     * @dev NEW FUNCTION: Allows a provider (or public) to see the list of records\r\n     * for a specific patient address. This is required for the Provider Search.\r\n     */\r\n    function getPatientRecords(address _patient) public view returns (string[] memory) {\r\n        return patients[_patient].recordHashes;\r\n    }\r\n}",
  "sourcePath": "E:\\Projects\\med-share-chain\\blockchain\\contracts\\AccessControl.sol",
  "compiler": {
    "name": "solc",
    "version": "0.8.20+commit.a1b79de6.Emscripten.clang"
  },
  "schemaVersion": "3.4.16",
  "updatedAt": "2025-12-23T15:00:05.802Z",
  "networkType": "ethereum",
  "devdoc": {
    "details": "Manages patient-centric access control for Electronic Health Records (EHR's). Patients can register, upload record hashes (from IPFS), and grant/revoke access to those records for healthcare providers. All access attempts are logged as events for an immutable audit trail.",
    "kind": "dev",
    "methods": {
      "checkAccess(address,address,string)": {
        "details": "Allows anyone (e.g., the backend server) to check if provider has access to a patient's record. This is a public \"view\" function, so it doesn't cost any gas to call."
      },
      "getMyRecords()": {
        "details": "Fetches all record hashes for the calling patient."
      },
      "getPatientRecords(address)": {
        "details": "NEW FUNCTION: Allows a provider (or public) to see the list of records for a specific patient address. This is required for the Provider Search."
      },
      "grantAccess(address,string)": {
        "details": "Grants a provider access to a specific record. This is the core patient-consent function. Only the patient can call this."
      },
      "registerPatient(string)": {
        "details": "Registers a new patient. The caller's wallet address (msg.sender) becomes their unique ID."
      },
      "registerProvider(string,string)": {
        "details": "Registers a new provider (hospital, doctor, pharmacy)."
      },
      "revokeAccess(address,string)": {
        "details": "Revokes a provider's access to a specific record. Only the patient can call this."
      },
      "uploadRecord(string)": {
        "details": "Adds a new record's IPFS hash to the patient's profile. This can only be called by a registered patient. (In real system, you might let a provider upload *for* a patient, but this \"patient-upload\" model is simpler to start with)."
      }
    },
    "stateVariables": {
      "permissions": {
        "details": "The core of the system. This nested mapping checks permissions. Format: mapping(patientAddress => mapping(providerAddress => mapping(recordHash => hasAccess)))"
      }
    },
    "title": "AccessControl",
    "version": 1
  },
  "userdoc": {
    "kind": "user",
    "methods": {},
    "version": 1
  }
}