{
  "contractName": "AccessControl",
  "abi": [
    {
      "anonymous": false,
      "inputs": [
        {
          "indexed": true,
          "internalType": "address",
          "name": "patientAddress",
          "type": "address"
        },
        {
          "indexed": true,
          "internalType": "address",
          "name": "providerAddress",
          "type": "address"
        },
        {
          "indexed": false,
          "internalType": "string",
          "name": "recordHash",
          "type": "string"
        },
        {
          "indexed": false,
          "internalType": "uint256",
          "name": "timestamp",
          "type": "uint256"
        }
      ],
      "name": "AccessGranted",
      "type": "event"
    },
    {
      "anonymous": false,
      "inputs": [
        {
          "indexed": true,
          "internalType": "address",
          "name": "patientAddress",
          "type": "address"
        },
        {
          "indexed": true,
          "internalType": "address",
          "name": "providerAddress",
          "type": "address"
        },
        {
          "indexed": false,
          "internalType": "string",
          "name": "recordHash",
          "type": "string"
        },
        {
          "indexed": false,
          "internalType": "uint256",
          "name": "timestamp",
          "type": "uint256"
        }
      ],
      "name": "AccessRevoked",
      "type": "event"
    },
    {
      "anonymous": false,
      "inputs": [
        {
          "indexed": true,
          "internalType": "address",
          "name": "patientAddress",
          "type": "address"
        },
        {
          "indexed": false,
          "internalType": "string",
          "name": "name",
          "type": "string"
        }
      ],
      "name": "PatientRegistered",
      "type": "event"
    },
    {
      "anonymous": false,
      "inputs": [
        {
          "indexed": true,
          "internalType": "address",
          "name": "providerAddress",
          "type": "address"
        },
        {
          "indexed": false,
          "internalType": "string",
          "name": "name",
          "type": "string"
        },
        {
          "indexed": false,
          "internalType": "string",
          "name": "hospital",
          "type": "string"
        }
      ],
      "name": "ProviderRegistered",
      "type": "event"
    },
    {
      "anonymous": false,
      "inputs": [
        {
          "indexed": true,
          "internalType": "address",
          "name": "patientAddress",
          "type": "address"
        },
        {
          "indexed": false,
          "internalType": "string",
          "name": "recordHash",
          "type": "string"
        },
        {
          "indexed": false,
          "internalType": "uint256",
          "name": "timestamp",
          "type": "uint256"
        }
      ],
      "name": "RecordUploaded",
      "type": "event"
    },
    {
      "inputs": [
        {
          "internalType": "address",
          "name": "",
          "type": "address"
        }
      ],
      "name": "patients",
      "outputs": [
        {
          "internalType": "address",
          "name": "owner",
          "type": "address"
        },
        {
          "internalType": "string",
          "name": "name",
          "type": "string"
        },
        {
          "internalType": "bool",
          "name": "isRegistered",
          "type": "bool"
        }
      ],
      "stateMutability": "view",
      "type": "function",
      "constant": true
    },
    {
      "inputs": [
        {
          "internalType": "address",
          "name": "",
          "type": "address"
        }
      ],
      "name": "providers",
      "outputs": [
        {
          "internalType": "address",
          "name": "owner",
          "type": "address"
        },
        {
          "internalType": "string",
          "name": "name",
          "type": "string"
        },
        {
          "internalType": "string",
          "name": "hospital",
          "type": "string"
        },
        {
          "internalType": "bool",
          "name": "isRegistered",
          "type": "bool"
        }
      ],
      "stateMutability": "view",
      "type": "function",
      "constant": true
    },
    {
      "inputs": [
        {
          "internalType": "string",
          "name": "_name",
          "type": "string"
        }
      ],
      "name": "registerPatient",
      "outputs": [],
      "stateMutability": "nonpayable",
      "type": "function"
    },
    {
      "inputs": [
        {
          "internalType": "string",
          "name": "_name",
          "type": "string"
        },
        {
          "internalType": "string",
          "name": "_hospital",
          "type": "string"
        }
      ],
      "name": "registerProvider",
      "outputs": [],
      "stateMutability": "nonpayable",
      "type": "function"
    },
    {
      "inputs": [
        {
          "internalType": "string",
          "name": "_recordHash",
          "type": "string"
        }
      ],
      "name": "uploadRecord",
      "outputs": [],
      "stateMutability": "nonpayable",
      "type": "function"
    },
    {
      "inputs": [
        {
          "internalType": "address",
          "name": "_providerAddress",
          "type": "address"
        },
        {
          "internalType": "string",
          "name": "_recordHash",
          "type": "string"
        }
      ],
      "name": "grantAccess",
      "outputs": [],
      "stateMutability": "nonpayable",
      "type": "function"
    },
    {
      "inputs": [
        {
          "internalType": "address",
          "name": "_providerAddress",
          "type": "address"
        },
        {
          "internalType": "string",
          "name": "_recordHash",
          "type": "string"
        }
      ],
      "name": "revokeAccess",
      "outputs": [],
      "stateMutability": "nonpayable",
      "type": "function"
    },
    {
      "inputs": [
        {
          "internalType": "address",
          "name": "_patientAddress",
          "type": "address"
        },
        {
          "internalType": "address",
          "name": "_providerAddress",
          "type": "address"
        },
        {
          "internalType": "string",
          "name": "_recordHash",
          "type": "string"
        }
      ],
      "name": "checkAccess",
      "outputs": [
        {
          "internalType": "bool",
          "name": "",
          "type": "bool"
        }
      ],
      "stateMutability": "view",
      "type": "function",
      "constant": true
    },
    {
      "inputs": [],
      "name": "getMyRecords",
      "outputs": [
        {
          "internalType": "string[]",
          "name": "",
          "type": "string[]"
        }
      ],
      "stateMutability": "view",
      "type": "function",
      "constant": true
    }
  ],
  "bytecode": "0x608060405234801561001057600080fd5b506110e0806100206000396000f3fe608060405234801561001057600080fd5b50600436106100935760003560e01c80637fb869bb116100665780637fb869bb1461010e578063869c9eaf14610121578063bfe9ee9b14610134578063e50fe48e14610157578063e76637ce1461016a57600080fd5b80630787bc27146100985780630869cfbc146100c45780636a44cac9146100e657806374ca8971146100fb575b600080fd5b6100ab6100a6366004610b66565b61017f565b6040516100bb9493929190610bd8565b60405180910390f35b6100d76100d2366004610b66565b6102c6565b6040516100bb93929190610c22565b6100f96100f4366004610cfb565b61037e565b005b6100f9610109366004610d49565b6104be565b6100f961011c366004610da3565b6105f3565b6100f961012f366004610da3565b610696565b610147610142366004610de0565b6107ed565b60405190151581526020016100bb565b6100f9610165366004610cfb565b610840565b610172610970565b6040516100bb9190610e3e565b6001602081905260009182526040909120805491810180546001600160a01b03909316926101ac90610ea0565b80601f01602080910402602001604051908101604052809291908181526020018280546101d890610ea0565b80156102255780601f106101fa57610100808354040283529160200191610225565b820191906000526020600020905b81548152906001019060200180831161020857829003601f168201915b50505050509080600201805461023a90610ea0565b80601f016020809104026020016040519081016040528092919081815260200182805461026690610ea0565b80156102b35780601f10610288576101008083540402835291602001916102b3565b820191906000526020600020905b81548152906001019060200180831161029657829003601f168201915b5050506003909301549192505060ff1684565b600060208190529081526040902080546001820180546001600160a01b0390921692916102f290610ea0565b80601f016020809104026020016040519081016040528092919081815260200182805461031e90610ea0565b801561036b5780601f106103405761010080835404028352916020019161036b565b820191906000526020600020905b81548152906001019060200180831161034e57829003601f168201915b5050506002909301549192505060ff1683565b3360009081526020819052604090206002015460ff166103b95760405162461bcd60e51b81526004016103b090610eda565b60405180910390fd5b6001600160a01b03821660009081526001602052604090206003015460ff166104245760405162461bcd60e51b815260206004820152601a60248201527f50726f7669646572206973206e6f74207265676973746572656400000000000060448201526064016103b0565b3360009081526002602090815260408083206001600160a01b03861684529091528082209051610455908490610f1c565b908152604051908190036020018120805492151560ff19909316929092179091556001600160a01b0383169033907f1852eeec29c8b9e06624d3e3008123c26ddd6173947b6bea9054402ea8ca57ad906104b29085904290610f38565b60405180910390a35050565b3360009081526001602052604090206003015460ff16156105215760405162461bcd60e51b815260206004820152601b60248201527f50726f766964657220616c72656164792072656769737465726564000000000060448201526064016103b0565b6040805160808101825233808252602080830186815283850186905260016060850181905260009384529182905293909120825181546001600160a01b0319166001600160a01b039091161781559251919291908201906105829082610fa9565b50604082015160028201906105979082610fa9565b50606091909101516003909101805460ff191691151591909117905560405133907f6b1aa1e318762b7b04f60cd1d318222049b2c70c1c7daad0af5276d5f3b2525a906105e79085908590611069565b60405180910390a25050565b3360009081526020819052604090206002015460ff166106255760405162461bcd60e51b81526004016103b090610eda565b336000908152602081815260408220600301805460018101825590835291200161064f8282610fa9565b50336001600160a01b03167f3564e739cc07f826a0b37ed3f9eb68fbb4c694f82ee6ba6a8349de13b6e56d1a824260405161068b929190610f38565b60405180910390a250565b3360009081526020819052604090206002015460ff16156106f95760405162461bcd60e51b815260206004820152601a60248201527f50617469656e7420616c7265616479207265676973746572656400000000000060448201526064016103b0565b6040805160808101825233815260208082018490526001828401528251600080825291810190935290916060830191610742565b606081526020019060019003908161072d5790505b50905233600090815260208181526040909120825181546001600160a01b0319166001600160a01b039091161781559082015160018201906107849082610fa9565b50604082015160028201805460ff1916911515919091179055606082015180516107b8916003840191602090910190610a85565b50506040513391507fc85b128388b9c331a2a5485dce4cd0f3db9f7c279d327ce95d6d39d6c94644c79061068b908490611097565b6001600160a01b03808416600090815260026020908152604080832093861683529290528181209151909190610824908490610f1c565b9081526040519081900360200190205460ff1690509392505050565b3360009081526020819052604090206002015460ff166108725760405162461bcd60e51b81526004016103b090610eda565b6001600160a01b03821660009081526001602052604090206003015460ff166108dd5760405162461bcd60e51b815260206004820152601a60248201527f50726f7669646572206973206e6f74207265676973746572656400000000000060448201526064016103b0565b3360009081526002602090815260408083206001600160a01b038616845290915290819020905160019190610913908490610f1c565b908152604051908190036020018120805492151560ff19909316929092179091556001600160a01b0383169033907f3cb7f6eca2e89478480f2e19de24bf888294c28de0d596963a54d49a51e2252d906104b29085904290610f38565b3360009081526020819052604090206002015460609060ff166109a55760405162461bcd60e51b81526004016103b090610eda565b3360009081526020818152604080832060030180548251818502810185019093528083529193909284015b82821015610a7c5783829060005260206000200180546109ef90610ea0565b80601f0160208091040260200160405190810160405280929190818152602001828054610a1b90610ea0565b8015610a685780601f10610a3d57610100808354040283529160200191610a68565b820191906000526020600020905b815481529060010190602001808311610a4b57829003601f168201915b5050505050815260200190600101906109d0565b50505050905090565b828054828255906000526020600020908101928215610acb579160200282015b82811115610acb5782518290610abb9082610fa9565b5091602001919060010190610aa5565b50610ad7929150610adb565b5090565b80821115610ad7576000610aef8282610af8565b50600101610adb565b508054610b0490610ea0565b6000825580601f10610b14575050565b601f016020900490600052602060002090810190610b329190610b35565b50565b5b80821115610ad75760008155600101610b36565b80356001600160a01b0381168114610b6157600080fd5b919050565b600060208284031215610b7857600080fd5b610b8182610b4a565b9392505050565b60005b83811015610ba3578181015183820152602001610b8b565b50506000910152565b60008151808452610bc4816020860160208601610b88565b601f01601f19169290920160200192915050565b6001600160a01b0385168152608060208201819052600090610bfc90830186610bac565b8281036040840152610c0e8186610bac565b915050821515606083015295945050505050565b6001600160a01b0384168152606060208201819052600090610c4690830185610bac565b90508215156040830152949350505050565b634e487b7160e01b600052604160045260246000fd5b600082601f830112610c7f57600080fd5b813567ffffffffffffffff80821115610c9a57610c9a610c58565b604051601f8301601f19908116603f01168101908282118183101715610cc257610cc2610c58565b81604052838152866020858801011115610cdb57600080fd5b836020870160208301376000602085830101528094505050505092915050565b60008060408385031215610d0e57600080fd5b610d1783610b4a565b9150602083013567ffffffffffffffff811115610d3357600080fd5b610d3f85828601610c6e565b9150509250929050565b60008060408385031215610d5c57600080fd5b823567ffffffffffffffff80821115610d7457600080fd5b610d8086838701610c6e565b93506020850135915080821115610d9657600080fd5b50610d3f85828601610c6e565b600060208284031215610db557600080fd5b813567ffffffffffffffff811115610dcc57600080fd5b610dd884828501610c6e565b949350505050565b600080600060608486031215610df557600080fd5b610dfe84610b4a565b9250610e0c60208501610b4a565b9150604084013567ffffffffffffffff811115610e2857600080fd5b610e3486828701610c6e565b9150509250925092565b6000602080830181845280855180835260408601915060408160051b870101925083870160005b82811015610e9357603f19888603018452610e81858351610bac565b94509285019290850190600101610e65565b5092979650505050505050565b600181811c90821680610eb457607f821691505b602082108103610ed457634e487b7160e01b600052602260045260246000fd5b50919050565b60208082526022908201527f43616c6c6572206973206e6f74206120726567697374657265642070617469656040820152611b9d60f21b606082015260800190565b60008251610f2e818460208701610b88565b9190910192915050565b604081526000610f4b6040830185610bac565b90508260208301529392505050565b601f821115610fa457600081815260208120601f850160051c81016020861015610f815750805b601f850160051c820191505b81811015610fa057828155600101610f8d565b5050505b505050565b815167ffffffffffffffff811115610fc357610fc3610c58565b610fd781610fd18454610ea0565b84610f5a565b602080601f83116001811461100c5760008415610ff45750858301515b600019600386901b1c1916600185901b178555610fa0565b600085815260208120601f198616915b8281101561103b5788860151825594840194600190910190840161101c565b50858210156110595787850151600019600388901b60f8161c191681555b5050505050600190811b01905550565b60408152600061107c6040830185610bac565b828103602084015261108e8185610bac565b95945050505050565b602081526000610b816020830184610bac56fea2646970667358221220729c985d4edf87c2b5b8c9ef4e4055f170882b6ace1d291f0bad7484505d2da164736f6c63430008140033",
  "immutableReferences": {},
  "source": "pragma solidity 0.8.20;\r\n\r\n/**\r\n * @title AccessControl\r\n * @dev Manages patient-centric access control for Electronic Health Records (EHR's).\r\n * Patients can register, upload record hashes (from IPFS), and grant/revoke\r\n * access to those records for healthcare providers.\r\n * All access attempts are logged as events for an immutable audit trail.\r\n */\r\n\r\ncontract AccessControl {\r\n    // --- State Variables ---\r\n\r\n    // Struct to store patient metadata.\r\n    // \"owner\" is the patient's unique wallet address.\r\n    struct Patient{\r\n        address owner;\r\n        string name;\r\n        bool isRegistered;\r\n        string[] recordHashes; // Array of IPFS hashes\r\n    }\r\n\r\n    // Struct to store provider metadata.\r\n    struct Provider{\r\n        address owner;\r\n        string name;\r\n        string hospital;\r\n        bool isRegistered;\r\n    }\r\n\r\n    // Stores patient data, mapping wallet address to Patient struct\r\n    mapping(address => Patient) public patients;\r\n\r\n    // Stores provider data, mapping wallet address to Provider struct\r\n    mapping(address => Provider) public providers;\r\n\r\n    /**\r\n     * @dev The core of the system.\r\n     * This nested mapping checks permissions.\r\n     * Format: mapping(patientAddress => mapping(providerAddress => mapping(recordHash => hasAccess)))\r\n     */\r\n    mapping(address => mapping(address => mapping(string => bool))) private permissions;\r\n\r\n    // --- Events (for Audit Trail) ---\r\n\r\n    event PatientRegistered(address indexed patientAddress, string name);\r\n    event ProviderRegistered(address indexed providerAddress, string name, string hospital);\r\n    event RecordUploaded(address indexed patientAddress, string recordHash, uint256 timestamp);\r\n    event AccessGranted(address indexed patientAddress, address indexed providerAddress, string recordHash, uint256 timestamp);\r\n    event AccessRevoked(address indexed patientAddress, address indexed providerAddress, string recordHash, uint256 timestamp);\r\n\r\n    // --- Modifiers ---\r\n\r\n    // Modifier to check if the caller is a registered patient\r\n    modifier onlyPatient() {\r\n        require(patients[msg.sender].isRegistered, \"Caller is not a registered patient\");\r\n        _;\r\n    }\r\n\r\n    // Modifier to check if the caller is a registered provider\r\n    modifier onlyProvider() {\r\n        require(providers[msg.sender].isRegistered, \"Caller is not a registered provider\");\r\n        _;\r\n    }\r\n\r\n    // --- Functions ---\r\n\r\n    /**\r\n     * @dev Registers a new patient.\r\n     * The caller's wallet address (msg.sender) becomes their unique ID.\r\n     */\r\n    function registerPatient(string memory _name) public{\r\n        require(!patients[msg.sender].isRegistered, \"Patient already registered\");\r\n        patients[msg.sender] = Patient({\r\n            owner: msg.sender,\r\n            name: _name,\r\n            isRegistered: true,\r\n            recordHashes: new string[](0)\r\n        });\r\n        emit PatientRegistered(msg.sender, _name);\r\n    }\r\n\r\n    /**\r\n     * @dev Registers a new provider (hospital, doctor, pharmacy).\r\n     */\r\n    function registerProvider(string memory _name, string memory _hospital) public {\r\n        require(!providers[msg.sender].isRegistered, \"Provider already registered\");\r\n        providers[msg.sender] = Provider({\r\n            owner: msg.sender,\r\n            name: _name,\r\n            hospital: _hospital,\r\n            isRegistered: true\r\n        });\r\n        emit ProviderRegistered(msg.sender, _name, _hospital);\r\n    }\r\n\r\n    /**\r\n     * @dev Adds a new record's IPFS hash to the patient's profile.\r\n     * This can only be called by a registered patient.\r\n     * (In real system, you might let a provider upload *for* a patient,\r\n     * but this \"patient-upload\" model is simpler to start with).\r\n     */\r\n    function uploadRecord(string memory _recordHash) public onlyPatient{\r\n        patients[msg.sender].recordHashes.push(_recordHash);\r\n        emit RecordUploaded(msg.sender, _recordHash, block.timestamp);\r\n    }\r\n\r\n    /**\r\n     * @dev Grants a provider access to a specific record.\r\n     * This is the core patient-consent function.\r\n     * Only the patient can call this.\r\n     */\r\n    function grantAccess(address _providerAddress, string memory _recordHash) public onlyPatient{\r\n        require(providers[_providerAddress].isRegistered, \"Provider is not registered\");\r\n        permissions[msg.sender][_providerAddress][_recordHash] = true;\r\n        emit AccessGranted(msg.sender, _providerAddress, _recordHash, block.timestamp);\r\n    }\r\n\r\n    /**\r\n     * @dev Revokes a provider's access to a specific record.\r\n     * Only the patient can call this.\r\n     */\r\n    function revokeAccess(address _providerAddress, string memory _recordHash) public onlyPatient{\r\n        require(providers[_providerAddress].isRegistered, \"Provider is not registered\");\r\n        permissions[msg.sender][_providerAddress][_recordHash] = false;\r\n        emit AccessRevoked(msg.sender, _providerAddress, _recordHash, block.timestamp);\r\n    }\r\n\r\n    /**\r\n     * @dev Allows anyone (e.g., the backend server) to check if provider\r\n     * has access to a patient's record. This is a public \"view\" function,\r\n     * so it doesn't cost any gas to call.\r\n     */\r\n    function checkAccess(\r\n        address _patientAddress,\r\n        address _providerAddress,\r\n        string memory _recordHash\r\n    ) public view returns (bool) {\r\n        return permissions[_patientAddress][_providerAddress][_recordHash];\r\n    }\r\n\r\n    /**\r\n     * @dev Fetches all record hashes for the calling patient.\r\n     */\r\n    function getMyRecords() public view onlyPatient returns (string[] memory){\r\n        return patients[msg.sender].recordHashes;\r\n    }\r\n\r\n}",
  "sourcePath": "E:\\Projects\\med-share-chain\\blockchain\\contracts\\AccessControl.sol",
  "compiler": {
    "name": "solc",
    "version": "0.8.20+commit.a1b79de6.Emscripten.clang"
  },
  "schemaVersion": "3.4.16",
  "updatedAt": "2025-12-21T16:37:06.649Z",
  "networkType": "ethereum",
  "devdoc": {
    "details": "Manages patient-centric access control for Electronic Health Records (EHR's). Patients can register, upload record hashes (from IPFS), and grant/revoke access to those records for healthcare providers. All access attempts are logged as events for an immutable audit trail.",
    "kind": "dev",
    "methods": {
      "checkAccess(address,address,string)": {
        "details": "Allows anyone (e.g., the backend server) to check if provider has access to a patient's record. This is a public \"view\" function, so it doesn't cost any gas to call."
      },
      "getMyRecords()": {
        "details": "Fetches all record hashes for the calling patient."
      },
      "grantAccess(address,string)": {
        "details": "Grants a provider access to a specific record. This is the core patient-consent function. Only the patient can call this."
      },
      "registerPatient(string)": {
        "details": "Registers a new patient. The caller's wallet address (msg.sender) becomes their unique ID."
      },
      "registerProvider(string,string)": {
        "details": "Registers a new provider (hospital, doctor, pharmacy)."
      },
      "revokeAccess(address,string)": {
        "details": "Revokes a provider's access to a specific record. Only the patient can call this."
      },
      "uploadRecord(string)": {
        "details": "Adds a new record's IPFS hash to the patient's profile. This can only be called by a registered patient. (In real system, you might let a provider upload *for* a patient, but this \"patient-upload\" model is simpler to start with)."
      }
    },
    "stateVariables": {
      "permissions": {
        "details": "The core of the system. This nested mapping checks permissions. Format: mapping(patientAddress => mapping(providerAddress => mapping(recordHash => hasAccess)))"
      }
    },
    "title": "AccessControl",
    "version": 1
  },
  "userdoc": {
    "kind": "user",
    "methods": {},
    "version": 1
  }
}