{
  "contractName": "AccessControl",
  "abi": [
    {
      "anonymous": false,
      "inputs": [
        {
          "indexed": true,
          "internalType": "address",
          "name": "patientAddress",
          "type": "address"
        },
        {
          "indexed": true,
          "internalType": "address",
          "name": "providerAddress",
          "type": "address"
        },
        {
          "indexed": false,
          "internalType": "string",
          "name": "recordHash",
          "type": "string"
        },
        {
          "indexed": false,
          "internalType": "uint256",
          "name": "timestamp",
          "type": "uint256"
        }
      ],
      "name": "AccessGranted",
      "type": "event"
    },
    {
      "anonymous": false,
      "inputs": [
        {
          "indexed": true,
          "internalType": "address",
          "name": "patientAddress",
          "type": "address"
        },
        {
          "indexed": true,
          "internalType": "address",
          "name": "providerAddress",
          "type": "address"
        },
        {
          "indexed": false,
          "internalType": "string",
          "name": "recordHash",
          "type": "string"
        },
        {
          "indexed": false,
          "internalType": "uint256",
          "name": "timestamp",
          "type": "uint256"
        }
      ],
      "name": "AccessRevoked",
      "type": "event"
    },
    {
      "anonymous": false,
      "inputs": [
        {
          "indexed": true,
          "internalType": "address",
          "name": "patientAddress",
          "type": "address"
        },
        {
          "indexed": false,
          "internalType": "string",
          "name": "name",
          "type": "string"
        }
      ],
      "name": "PatientRegistered",
      "type": "event"
    },
    {
      "anonymous": false,
      "inputs": [
        {
          "indexed": true,
          "internalType": "address",
          "name": "providerAddress",
          "type": "address"
        },
        {
          "indexed": false,
          "internalType": "string",
          "name": "name",
          "type": "string"
        },
        {
          "indexed": false,
          "internalType": "string",
          "name": "hospital",
          "type": "string"
        }
      ],
      "name": "ProviderRegistered",
      "type": "event"
    },
    {
      "anonymous": false,
      "inputs": [
        {
          "indexed": true,
          "internalType": "address",
          "name": "patientAddress",
          "type": "address"
        },
        {
          "indexed": false,
          "internalType": "string",
          "name": "recordHash",
          "type": "string"
        },
        {
          "indexed": false,
          "internalType": "uint256",
          "name": "timestamp",
          "type": "uint256"
        }
      ],
      "name": "RecordUploaded",
      "type": "event"
    },
    {
      "inputs": [
        {
          "internalType": "address",
          "name": "",
          "type": "address"
        }
      ],
      "name": "patients",
      "outputs": [
        {
          "internalType": "address",
          "name": "owner",
          "type": "address"
        },
        {
          "internalType": "string",
          "name": "name",
          "type": "string"
        },
        {
          "internalType": "bool",
          "name": "isRegistered",
          "type": "bool"
        }
      ],
      "stateMutability": "view",
      "type": "function"
    },
    {
      "inputs": [
        {
          "internalType": "address",
          "name": "",
          "type": "address"
        },
        {
          "internalType": "uint256",
          "name": "",
          "type": "uint256"
        }
      ],
      "name": "providerSharedRecords",
      "outputs": [
        {
          "internalType": "address",
          "name": "patient",
          "type": "address"
        },
        {
          "internalType": "string",
          "name": "recordHash",
          "type": "string"
        },
        {
          "internalType": "uint256",
          "name": "sharedAt",
          "type": "uint256"
        }
      ],
      "stateMutability": "view",
      "type": "function"
    },
    {
      "inputs": [
        {
          "internalType": "address",
          "name": "",
          "type": "address"
        }
      ],
      "name": "providers",
      "outputs": [
        {
          "internalType": "address",
          "name": "owner",
          "type": "address"
        },
        {
          "internalType": "string",
          "name": "name",
          "type": "string"
        },
        {
          "internalType": "string",
          "name": "hospital",
          "type": "string"
        },
        {
          "internalType": "bool",
          "name": "isRegistered",
          "type": "bool"
        }
      ],
      "stateMutability": "view",
      "type": "function"
    },
    {
      "inputs": [
        {
          "internalType": "string",
          "name": "_name",
          "type": "string"
        }
      ],
      "name": "registerPatient",
      "outputs": [],
      "stateMutability": "nonpayable",
      "type": "function"
    },
    {
      "inputs": [
        {
          "internalType": "string",
          "name": "_name",
          "type": "string"
        },
        {
          "internalType": "string",
          "name": "_hospital",
          "type": "string"
        }
      ],
      "name": "registerProvider",
      "outputs": [],
      "stateMutability": "nonpayable",
      "type": "function"
    },
    {
      "inputs": [
        {
          "internalType": "string",
          "name": "_recordHash",
          "type": "string"
        }
      ],
      "name": "uploadRecord",
      "outputs": [],
      "stateMutability": "nonpayable",
      "type": "function"
    },
    {
      "inputs": [
        {
          "internalType": "address",
          "name": "_providerAddress",
          "type": "address"
        },
        {
          "internalType": "string",
          "name": "_recordHash",
          "type": "string"
        }
      ],
      "name": "grantAccess",
      "outputs": [],
      "stateMutability": "nonpayable",
      "type": "function"
    },
    {
      "inputs": [
        {
          "internalType": "address",
          "name": "_providerAddress",
          "type": "address"
        },
        {
          "internalType": "string",
          "name": "_recordHash",
          "type": "string"
        }
      ],
      "name": "revokeAccess",
      "outputs": [],
      "stateMutability": "nonpayable",
      "type": "function"
    },
    {
      "inputs": [
        {
          "internalType": "address",
          "name": "_patientAddress",
          "type": "address"
        },
        {
          "internalType": "address",
          "name": "_providerAddress",
          "type": "address"
        },
        {
          "internalType": "string",
          "name": "_recordHash",
          "type": "string"
        }
      ],
      "name": "checkAccess",
      "outputs": [
        {
          "internalType": "bool",
          "name": "",
          "type": "bool"
        }
      ],
      "stateMutability": "view",
      "type": "function"
    },
    {
      "inputs": [],
      "name": "getMyRecords",
      "outputs": [
        {
          "internalType": "string[]",
          "name": "",
          "type": "string[]"
        }
      ],
      "stateMutability": "view",
      "type": "function"
    },
    {
      "inputs": [
        {
          "internalType": "address",
          "name": "_patient",
          "type": "address"
        }
      ],
      "name": "getPatientRecords",
      "outputs": [
        {
          "internalType": "string[]",
          "name": "",
          "type": "string[]"
        }
      ],
      "stateMutability": "view",
      "type": "function"
    },
    {
      "inputs": [
        {
          "internalType": "address",
          "name": "_provider",
          "type": "address"
        }
      ],
      "name": "getProviderSharedRecords",
      "outputs": [
        {
          "components": [
            {
              "internalType": "address",
              "name": "patient",
              "type": "address"
            },
            {
              "internalType": "string",
              "name": "recordHash",
              "type": "string"
            },
            {
              "internalType": "uint256",
              "name": "sharedAt",
              "type": "uint256"
            }
          ],
          "internalType": "struct AccessControl.SharedRecord[]",
          "name": "",
          "type": "tuple[]"
        }
      ],
      "stateMutability": "view",
      "type": "function"
    }
  ],
  "bytecode": "0x608060405234801561001057600080fd5b506115a5806100206000396000f3fe608060405234801561001057600080fd5b50600436106100b45760003560e01c8063869c9eaf11610071578063869c9eaf14610162578063bfe9ee9b14610175578063de6abb2414610198578063e50fe48e146101ba578063e76637ce146101cd578063efb6b9d9146101d557600080fd5b80630787bc27146100b95780630869cfbc146100e557806318bd4847146101075780636a44cac91461012757806374ca89711461013c5780637fb869bb1461014f575b600080fd5b6100cc6100c7366004610f41565b6101f5565b6040516100dc9493929190610fb3565b60405180910390f35b6100f86100f3366004610f41565b61033c565b6040516100dc93929190610ffd565b61011a610115366004610f41565b6103f4565b6040516100dc9190611033565b61013a610135366004611138565b6104e4565b005b61013a61014a366004611186565b610624565b61013a61015d3660046111e0565b610759565b61013a6101703660046111e0565b6107fc565b61018861018336600461121d565b610953565b60405190151581526020016100dc565b6101ab6101a636600461127b565b6109a6565b6040516100dc939291906112a5565b61013a6101c8366004611138565b610a7c565b61011a610c2f565b6101e86101e3366004610f41565b610d44565b6040516100dc91906112d9565b6001602081905260009182526040909120805491810180546001600160a01b039093169261022290611365565b80601f016020809104026020016040519081016040528092919081815260200182805461024e90611365565b801561029b5780601f106102705761010080835404028352916020019161029b565b820191906000526020600020905b81548152906001019060200180831161027e57829003601f168201915b5050505050908060020180546102b090611365565b80601f01602080910402602001604051908101604052809291908181526020018280546102dc90611365565b80156103295780601f106102fe57610100808354040283529160200191610329565b820191906000526020600020905b81548152906001019060200180831161030c57829003601f168201915b5050506003909301549192505060ff1684565b600060208190529081526040902080546001820180546001600160a01b03909216929161036890611365565b80601f016020809104026020016040519081016040528092919081815260200182805461039490611365565b80156103e15780601f106103b6576101008083540402835291602001916103e1565b820191906000526020600020905b8154815290600101906020018083116103c457829003601f168201915b5050506002909301549192505060ff1683565b6001600160a01b038116600090815260208181526040808320600301805482518185028101850190935280835260609492939192909184015b828210156104d957838290600052602060002001805461044c90611365565b80601f016020809104026020016040519081016040528092919081815260200182805461047890611365565b80156104c55780601f1061049a576101008083540402835291602001916104c5565b820191906000526020600020905b8154815290600101906020018083116104a857829003601f168201915b50505050508152602001906001019061042d565b505050509050919050565b3360009081526020819052604090206002015460ff1661051f5760405162461bcd60e51b81526004016105169061139f565b60405180910390fd5b6001600160a01b03821660009081526001602052604090206003015460ff1661058a5760405162461bcd60e51b815260206004820152601a60248201527f50726f7669646572206973206e6f7420726567697374657265640000000000006044820152606401610516565b3360009081526003602090815260408083206001600160a01b038616845290915280822090516105bb9084906113e1565b908152604051908190036020018120805492151560ff19909316929092179091556001600160a01b0383169033907f1852eeec29c8b9e06624d3e3008123c26ddd6173947b6bea9054402ea8ca57ad9061061890859042906113fd565b60405180910390a35050565b3360009081526001602052604090206003015460ff16156106875760405162461bcd60e51b815260206004820152601b60248201527f50726f766964657220616c7265616479207265676973746572656400000000006044820152606401610516565b6040805160808101825233808252602080830186815283850186905260016060850181905260009384529182905293909120825181546001600160a01b0319166001600160a01b039091161781559251919291908201906106e8908261146e565b50604082015160028201906106fd908261146e565b50606091909101516003909101805460ff191691151591909117905560405133907f6b1aa1e318762b7b04f60cd1d318222049b2c70c1c7daad0af5276d5f3b2525a9061074d908590859061152e565b60405180910390a25050565b3360009081526020819052604090206002015460ff1661078b5760405162461bcd60e51b81526004016105169061139f565b33600090815260208181526040822060030180546001810182559083529120016107b5828261146e565b50336001600160a01b03167f3564e739cc07f826a0b37ed3f9eb68fbb4c694f82ee6ba6a8349de13b6e56d1a82426040516107f19291906113fd565b60405180910390a250565b3360009081526020819052604090206002015460ff161561085f5760405162461bcd60e51b815260206004820152601a60248201527f50617469656e7420616c726561647920726567697374657265640000000000006044820152606401610516565b60408051608081018252338152602080820184905260018284015282516000808252918101909352909160608301916108a8565b60608152602001906001900390816108935790505b50905233600090815260208181526040909120825181546001600160a01b0319166001600160a01b039091161781559082015160018201906108ea908261146e565b50604082015160028201805460ff19169115159190911790556060820151805161091e916003840191602090910190610e60565b50506040513391507fc85b128388b9c331a2a5485dce4cd0f3db9f7c279d327ce95d6d39d6c94644c7906107f190849061155c565b6001600160a01b0380841660009081526003602090815260408083209386168352929052818120915190919061098a9084906113e1565b9081526040519081900360200190205460ff1690509392505050565b600260205281600052604060002081815481106109c257600080fd5b6000918252602090912060039091020180546001820180546001600160a01b0390921694509192506109f390611365565b80601f0160208091040260200160405190810160405280929190818152602001828054610a1f90611365565b8015610a6c5780601f10610a4157610100808354040283529160200191610a6c565b820191906000526020600020905b815481529060010190602001808311610a4f57829003601f168201915b5050505050908060020154905083565b3360009081526020819052604090206002015460ff16610aae5760405162461bcd60e51b81526004016105169061139f565b6001600160a01b03821660009081526001602052604090206003015460ff16610b195760405162461bcd60e51b815260206004820152601a60248201527f50726f7669646572206973206e6f7420726567697374657265640000000000006044820152606401610516565b3360009081526003602090815260408083206001600160a01b038616845290915290819020905160019190610b4f9084906113e1565b9081526040805160209281900383018120805460ff1916941515949094179093556001600160a01b03858116600090815260028452828120606086018452338652848601878152429487019490945280546001818101835591835294909120855160039095020180546001600160a01b0319169490921693909317815590519091820190610bdd908261146e565b50604082015181600201555050816001600160a01b0316336001600160a01b03167f3cb7f6eca2e89478480f2e19de24bf888294c28de0d596963a54d49a51e2252d83426040516106189291906113fd565b3360009081526020819052604090206002015460609060ff16610c645760405162461bcd60e51b81526004016105169061139f565b3360009081526020818152604080832060030180548251818502810185019093528083529193909284015b82821015610d3b578382906000526020600020018054610cae90611365565b80601f0160208091040260200160405190810160405280929190818152602001828054610cda90611365565b8015610d275780601f10610cfc57610100808354040283529160200191610d27565b820191906000526020600020905b815481529060010190602001808311610d0a57829003601f168201915b505050505081526020019060010190610c8f565b50505050905090565b6001600160a01b0381166000908152600260209081526040808320805482518185028101850190935280835260609492939192909184015b828210156104d957600084815260209081902060408051606081019091526003850290910180546001600160a01b031682526001810180549293919291840191610dc590611365565b80601f0160208091040260200160405190810160405280929190818152602001828054610df190611365565b8015610e3e5780601f10610e1357610100808354040283529160200191610e3e565b820191906000526020600020905b815481529060010190602001808311610e2157829003601f168201915b5050505050815260200160028201548152505081526020019060010190610d7c565b828054828255906000526020600020908101928215610ea6579160200282015b82811115610ea65782518290610e96908261146e565b5091602001919060010190610e80565b50610eb2929150610eb6565b5090565b80821115610eb2576000610eca8282610ed3565b50600101610eb6565b508054610edf90611365565b6000825580601f10610eef575050565b601f016020900490600052602060002090810190610f0d9190610f10565b50565b5b80821115610eb25760008155600101610f11565b80356001600160a01b0381168114610f3c57600080fd5b919050565b600060208284031215610f5357600080fd5b610f5c82610f25565b9392505050565b60005b83811015610f7e578181015183820152602001610f66565b50506000910152565b60008151808452610f9f816020860160208601610f63565b601f01601f19169290920160200192915050565b6001600160a01b0385168152608060208201819052600090610fd790830186610f87565b8281036040840152610fe98186610f87565b915050821515606083015295945050505050565b6001600160a01b038416815260606020820181905260009061102190830185610f87565b90508215156040830152949350505050565b6000602080830181845280855180835260408601915060408160051b870101925083870160005b8281101561108857603f19888603018452611076858351610f87565b9450928501929085019060010161105a565b5092979650505050505050565b634e487b7160e01b600052604160045260246000fd5b600082601f8301126110bc57600080fd5b813567ffffffffffffffff808211156110d7576110d7611095565b604051601f8301601f19908116603f011681019082821181831017156110ff576110ff611095565b8160405283815286602085880101111561111857600080fd5b836020870160208301376000602085830101528094505050505092915050565b6000806040838503121561114b57600080fd5b61115483610f25565b9150602083013567ffffffffffffffff81111561117057600080fd5b61117c858286016110ab565b9150509250929050565b6000806040838503121561119957600080fd5b823567ffffffffffffffff808211156111b157600080fd5b6111bd868387016110ab565b935060208501359150808211156111d357600080fd5b5061117c858286016110ab565b6000602082840312156111f257600080fd5b813567ffffffffffffffff81111561120957600080fd5b611215848285016110ab565b949350505050565b60008060006060848603121561123257600080fd5b61123b84610f25565b925061124960208501610f25565b9150604084013567ffffffffffffffff81111561126557600080fd5b611271868287016110ab565b9150509250925092565b6000806040838503121561128e57600080fd5b61129783610f25565b946020939093013593505050565b6001600160a01b03841681526060602082018190526000906112c990830185610f87565b9050826040830152949350505050565b60006020808301818452808551808352604092508286019150828160051b87010184880160005b8381101561135757888303603f19018552815180516001600160a01b031684528781015160608986018190529061133982870182610f87565b92890151958901959095525094870194925090860190600101611300565b509098975050505050505050565b600181811c9082168061137957607f821691505b60208210810361139957634e487b7160e01b600052602260045260246000fd5b50919050565b60208082526022908201527f43616c6c6572206973206e6f74206120726567697374657265642070617469656040820152611b9d60f21b606082015260800190565b600082516113f3818460208701610f63565b9190910192915050565b6040815260006114106040830185610f87565b90508260208301529392505050565b601f82111561146957600081815260208120601f850160051c810160208610156114465750805b601f850160051c820191505b8181101561146557828155600101611452565b5050505b505050565b815167ffffffffffffffff81111561148857611488611095565b61149c816114968454611365565b8461141f565b602080601f8311600181146114d157600084156114b95750858301515b600019600386901b1c1916600185901b178555611465565b600085815260208120601f198616915b82811015611500578886015182559484019460019091019084016114e1565b508582101561151e5787850151600019600388901b60f8161c191681555b5050505050600190811b01905550565b6040815260006115416040830185610f87565b82810360208401526115538185610f87565b95945050505050565b602081526000610f5c6020830184610f8756fea264697066735822122009434c7e397d44a7de618676a4de4d622b382e957cbc2b63f1ed6890042c1c7e64736f6c63430008140033",
  "immutableReferences": {},
  "source": "pragma solidity 0.8.20;\r\n\r\n/**\r\n * @title AccessControl\r\n * @dev Manages patient-centric access control for Electronic Health Records (EHR's).\r\n * Patients can register, upload record hashes (from IPFS), and grant/revoke\r\n * access to those records for healthcare providers.\r\n * All access attempts are logged as events for an immutable audit trail.\r\n */\r\n\r\ncontract AccessControl {\r\n    // --- State Variables ---\r\n\r\n    // Struct to store patient metadata.\r\n    // \"owner\" is the patient's unique wallet address.\r\n    struct Patient{\r\n        address owner;\r\n        string name;\r\n        bool isRegistered;\r\n        string[] recordHashes; // Array of IPFS hashes\r\n    }\r\n\r\n    // Struct to store provider metadata.\r\n    struct Provider{\r\n        address owner;\r\n        string name;\r\n        string hospital;\r\n        bool isRegistered;\r\n    }\r\n\r\n    // Struct to track a shared file\r\n    struct SharedRecord{\r\n        address patient;\r\n        string recordHash;\r\n        uint256 sharedAt;\r\n    }\r\n\r\n    // Stores patient data, mapping wallet address to Patient struct\r\n    mapping(address => Patient) public patients;\r\n\r\n    // Stores provider data, mapping wallet address to Provider struct\r\n    mapping(address => Provider) public providers;\r\n\r\n    // Stores the provider shred records\r\n    mapping(address => SharedRecord[]) public providerSharedRecords;\r\n\r\n    /**\r\n     * @dev The core of the system.\r\n     * This nested mapping checks permissions.\r\n     * Format: mapping(patientAddress => mapping(providerAddress => mapping(recordHash => hasAccess)))\r\n     */\r\n    mapping(address => mapping(address => mapping(string => bool))) private permissions;\r\n\r\n    // --- Events (for Audit Trail) ---\r\n\r\n    event PatientRegistered(address indexed patientAddress, string name);\r\n    event ProviderRegistered(address indexed providerAddress, string name, string hospital);\r\n    event RecordUploaded(address indexed patientAddress, string recordHash, uint256 timestamp);\r\n    event AccessGranted(address indexed patientAddress, address indexed providerAddress, string recordHash, uint256 timestamp);\r\n    event AccessRevoked(address indexed patientAddress, address indexed providerAddress, string recordHash, uint256 timestamp);\r\n\r\n    // --- Modifiers ---\r\n\r\n    // Modifier to check if the caller is a registered patient\r\n    modifier onlyPatient() {\r\n        require(patients[msg.sender].isRegistered, \"Caller is not a registered patient\");\r\n        _;\r\n    }\r\n\r\n    // Modifier to check if the caller is a registered provider\r\n    modifier onlyProvider() {\r\n        require(providers[msg.sender].isRegistered, \"Caller is not a registered provider\");\r\n        _;\r\n    }\r\n\r\n    // --- Functions ---\r\n\r\n    /**\r\n     * @dev Registers a new patient.\r\n     * The caller's wallet address (msg.sender) becomes their unique ID.\r\n     */\r\n    function registerPatient(string memory _name) public{\r\n        require(!patients[msg.sender].isRegistered, \"Patient already registered\");\r\n        patients[msg.sender] = Patient({\r\n            owner: msg.sender,\r\n            name: _name,\r\n            isRegistered: true,\r\n            recordHashes: new string[](0)\r\n        });\r\n        emit PatientRegistered(msg.sender, _name);\r\n    }\r\n\r\n    /**\r\n     * @dev Registers a new provider (hospital, doctor, pharmacy).\r\n     */\r\n    function registerProvider(string memory _name, string memory _hospital) public {\r\n        require(!providers[msg.sender].isRegistered, \"Provider already registered\");\r\n        providers[msg.sender] = Provider({\r\n            owner: msg.sender,\r\n            name: _name,\r\n            hospital: _hospital,\r\n            isRegistered: true\r\n        });\r\n        emit ProviderRegistered(msg.sender, _name, _hospital);\r\n    }\r\n\r\n    /**\r\n     * @dev Adds a new record's IPFS hash to the patient's profile.\r\n     * This can only be called by a registered patient.\r\n     * (In real system, you might let a provider upload *for* a patient,\r\n     * but this \"patient-upload\" model is simpler to start with).\r\n     */\r\n    function uploadRecord(string memory _recordHash) public onlyPatient{\r\n        patients[msg.sender].recordHashes.push(_recordHash);\r\n        emit RecordUploaded(msg.sender, _recordHash, block.timestamp);\r\n    }\r\n\r\n    /**\r\n     * @dev Grants a provider access to a specific record.\r\n     * This is the core patient-consent function.\r\n     * Only the patient can call this.\r\n     */\r\n    function grantAccess(address _providerAddress, string memory _recordHash) public onlyPatient{\r\n        require(providers[_providerAddress].isRegistered, \"Provider is not registered\");\r\n        permissions[msg.sender][_providerAddress][_recordHash] = true;\r\n        \r\n        providerSharedRecords[_providerAddress].push(SharedRecord({\r\n            patient: msg.sender,\r\n            recordHash: _recordHash,\r\n            sharedAt: block.timestamp\r\n        }));\r\n        \r\n        emit AccessGranted(msg.sender, _providerAddress, _recordHash, block.timestamp);\r\n    }\r\n\r\n    /**\r\n     * @dev Revokes a provider's access to a specific record.\r\n     * Only the patient can call this.\r\n     */\r\n    function revokeAccess(address _providerAddress, string memory _recordHash) public onlyPatient{\r\n        require(providers[_providerAddress].isRegistered, \"Provider is not registered\");\r\n        permissions[msg.sender][_providerAddress][_recordHash] = false;\r\n        emit AccessRevoked(msg.sender, _providerAddress, _recordHash, block.timestamp);\r\n    }\r\n\r\n    /**\r\n     * @dev Allows anyone (e.g., the backend server) to check if provider\r\n     * has access to a patient's record. This is a public \"view\" function,\r\n     * so it doesn't cost any gas to call.\r\n     */\r\n    function checkAccess(\r\n        address _patientAddress,\r\n        address _providerAddress,\r\n        string memory _recordHash\r\n    ) public view returns (bool) {\r\n        return permissions[_patientAddress][_providerAddress][_recordHash];\r\n    }\r\n\r\n    /**\r\n     * @dev Fetches all record hashes for the calling patient.\r\n     */\r\n    function getMyRecords() public view onlyPatient returns (string[] memory){\r\n        return patients[msg.sender].recordHashes;\r\n    }\r\n\r\n    /**\r\n     * @dev NEW FUNCTION: Allows a provider (or public) to see the list of records\r\n     * for a specific patient address. This is required for the Provider Search.\r\n     */\r\n    function getPatientRecords(address _patient) public view returns (string[] memory) {\r\n        return patients[_patient].recordHashes;\r\n    }\r\n    \r\n    /**\r\n     * @dev Retrieves all shared records that have been granted access to a specific provider\r\n     * This function allows providers to view all records they have been granted access to,\r\n     * including the patient address and when the access was granted\r\n     */\r\n    function getProviderSharedRecords(address _provider) public view returns (SharedRecord[] memory){\r\n        return providerSharedRecords[_provider];\r\n    }\r\n}",
  "sourcePath": "E:\\Projects\\med-share-chain\\blockchain\\contracts\\AccessControl.sol",
  "compiler": {
    "name": "solc",
    "version": "0.8.20+commit.a1b79de6.Emscripten.clang"
  },
  "schemaVersion": "3.4.16",
  "updatedAt": "2025-12-30T17:53:30.041Z",
  "devdoc": {
    "details": "Manages patient-centric access control for Electronic Health Records (EHR's). Patients can register, upload record hashes (from IPFS), and grant/revoke access to those records for healthcare providers. All access attempts are logged as events for an immutable audit trail.",
    "kind": "dev",
    "methods": {
      "checkAccess(address,address,string)": {
        "details": "Allows anyone (e.g., the backend server) to check if provider has access to a patient's record. This is a public \"view\" function, so it doesn't cost any gas to call."
      },
      "getMyRecords()": {
        "details": "Fetches all record hashes for the calling patient."
      },
      "getPatientRecords(address)": {
        "details": "NEW FUNCTION: Allows a provider (or public) to see the list of records for a specific patient address. This is required for the Provider Search."
      },
      "getProviderSharedRecords(address)": {
        "details": "Retrieves all shared records that have been granted access to a specific provider This function allows providers to view all records they have been granted access to, including the patient address and when the access was granted"
      },
      "grantAccess(address,string)": {
        "details": "Grants a provider access to a specific record. This is the core patient-consent function. Only the patient can call this."
      },
      "registerPatient(string)": {
        "details": "Registers a new patient. The caller's wallet address (msg.sender) becomes their unique ID."
      },
      "registerProvider(string,string)": {
        "details": "Registers a new provider (hospital, doctor, pharmacy)."
      },
      "revokeAccess(address,string)": {
        "details": "Revokes a provider's access to a specific record. Only the patient can call this."
      },
      "uploadRecord(string)": {
        "details": "Adds a new record's IPFS hash to the patient's profile. This can only be called by a registered patient. (In real system, you might let a provider upload *for* a patient, but this \"patient-upload\" model is simpler to start with)."
      }
    },
    "stateVariables": {
      "permissions": {
        "details": "The core of the system. This nested mapping checks permissions. Format: mapping(patientAddress => mapping(providerAddress => mapping(recordHash => hasAccess)))"
      }
    },
    "title": "AccessControl",
    "version": 1
  },
  "userdoc": {
    "kind": "user",
    "methods": {},
    "version": 1
  }
}